{
  "contractName": "MockBigNumber",
  "abi": [
    {
      "constant": false,
      "inputs": [
        {
          "name": "a_val",
          "type": "bytes"
        },
        {
          "name": "a_neg",
          "type": "bool"
        },
        {
          "name": "a_bitlen",
          "type": "uint256"
        },
        {
          "name": "b_val",
          "type": "bytes"
        },
        {
          "name": "b_neg",
          "type": "bool"
        },
        {
          "name": "b_bitlen",
          "type": "uint256"
        }
      ],
      "name": "mock_bn_add",
      "outputs": [
        {
          "name": "",
          "type": "bytes"
        },
        {
          "name": "",
          "type": "bool"
        },
        {
          "name": "",
          "type": "uint256"
        }
      ],
      "payable": false,
      "stateMutability": "nonpayable",
      "type": "function"
    },
    {
      "constant": false,
      "inputs": [],
      "name": "js_call",
      "outputs": [
        {
          "name": "",
          "type": "bytes"
        },
        {
          "name": "",
          "type": "bool"
        },
        {
          "name": "",
          "type": "uint256"
        }
      ],
      "payable": false,
      "stateMutability": "nonpayable",
      "type": "function"
    },
    {
      "constant": false,
      "inputs": [
        {
          "name": "a_val",
          "type": "bytes"
        },
        {
          "name": "a_bitlen",
          "type": "uint256"
        },
        {
          "name": "m_val",
          "type": "bytes"
        },
        {
          "name": "m_bitlen",
          "type": "uint256"
        },
        {
          "name": "n_val",
          "type": "bytes"
        },
        {
          "name": "n_bitlen",
          "type": "uint256"
        }
      ],
      "name": "mock_modinverse",
      "outputs": [
        {
          "name": "",
          "type": "bytes"
        },
        {
          "name": "",
          "type": "bool"
        },
        {
          "name": "",
          "type": "uint256"
        }
      ],
      "payable": false,
      "stateMutability": "nonpayable",
      "type": "function"
    },
    {
      "constant": false,
      "inputs": [
        {
          "name": "a_val",
          "type": "bytes"
        },
        {
          "name": "a_extra",
          "type": "bytes"
        },
        {
          "name": "b_val",
          "type": "bytes"
        },
        {
          "name": "b_extra",
          "type": "bytes"
        },
        {
          "name": "mod_val",
          "type": "bytes"
        },
        {
          "name": "mod_extra",
          "type": "bytes"
        }
      ],
      "name": "mock_modmul",
      "outputs": [
        {
          "name": "",
          "type": "bytes"
        },
        {
          "name": "",
          "type": "bool"
        },
        {
          "name": "",
          "type": "uint256"
        }
      ],
      "payable": false,
      "stateMutability": "nonpayable",
      "type": "function"
    },
    {
      "constant": false,
      "inputs": [
        {
          "name": "a_val",
          "type": "bytes"
        },
        {
          "name": "a_neg",
          "type": "bool"
        },
        {
          "name": "a_bitlen",
          "type": "uint256"
        },
        {
          "name": "b_val",
          "type": "bytes"
        },
        {
          "name": "b_neg",
          "type": "bool"
        },
        {
          "name": "b_bitlen",
          "type": "uint256"
        }
      ],
      "name": "mock_bn_mul",
      "outputs": [
        {
          "name": "",
          "type": "bytes"
        },
        {
          "name": "",
          "type": "bool"
        },
        {
          "name": "",
          "type": "uint256"
        }
      ],
      "payable": false,
      "stateMutability": "nonpayable",
      "type": "function"
    },
    {
      "constant": false,
      "inputs": [
        {
          "name": "a_val",
          "type": "bytes"
        },
        {
          "name": "a_extra",
          "type": "bytes"
        },
        {
          "name": "b_val",
          "type": "bytes"
        },
        {
          "name": "b_extra",
          "type": "bytes"
        },
        {
          "name": "res_val",
          "type": "bytes"
        },
        {
          "name": "res_extra",
          "type": "bytes"
        }
      ],
      "name": "mock_bn_div",
      "outputs": [
        {
          "name": "",
          "type": "bytes"
        },
        {
          "name": "",
          "type": "bool"
        },
        {
          "name": "",
          "type": "uint256"
        }
      ],
      "payable": false,
      "stateMutability": "nonpayable",
      "type": "function"
    },
    {
      "constant": false,
      "inputs": [
        {
          "name": "a_val",
          "type": "bytes"
        },
        {
          "name": "a_extra",
          "type": "bytes"
        },
        {
          "name": "b_val",
          "type": "bytes"
        },
        {
          "name": "b_extra",
          "type": "bytes"
        },
        {
          "name": "mod_val",
          "type": "bytes"
        },
        {
          "name": "mod_extra",
          "type": "bytes"
        }
      ],
      "name": "mock_modexp",
      "outputs": [
        {
          "name": "",
          "type": "bytes"
        },
        {
          "name": "",
          "type": "bool"
        },
        {
          "name": "",
          "type": "uint256"
        }
      ],
      "payable": false,
      "stateMutability": "nonpayable",
      "type": "function"
    },
    {
      "constant": false,
      "inputs": [
        {
          "name": "prime_val",
          "type": "bytes"
        },
        {
          "name": "prime_bitlen",
          "type": "uint256"
        },
        {
          "name": "randomness_vals",
          "type": "bytes"
        },
        {
          "name": "count_randomness",
          "type": "uint256"
        }
      ],
      "name": "mock_is_prime",
      "outputs": [
        {
          "name": "",
          "type": "string"
        }
      ],
      "payable": false,
      "stateMutability": "nonpayable",
      "type": "function"
    },
    {
      "constant": false,
      "inputs": [
        {
          "name": "a_val",
          "type": "bytes"
        },
        {
          "name": "a_neg",
          "type": "bool"
        },
        {
          "name": "a_bitlen",
          "type": "uint256"
        },
        {
          "name": "b_val",
          "type": "bytes"
        },
        {
          "name": "b_neg",
          "type": "bool"
        },
        {
          "name": "b_bitlen",
          "type": "uint256"
        }
      ],
      "name": "mock_bn_sub",
      "outputs": [
        {
          "name": "",
          "type": "bytes"
        },
        {
          "name": "",
          "type": "bool"
        },
        {
          "name": "",
          "type": "uint256"
        }
      ],
      "payable": false,
      "stateMutability": "nonpayable",
      "type": "function"
    },
    {
      "anonymous": false,
      "inputs": [
        {
          "indexed": false,
          "name": "",
          "type": "bytes"
        },
        {
          "indexed": false,
          "name": "",
          "type": "bool"
        },
        {
          "indexed": false,
          "name": "",
          "type": "uint256"
        }
      ],
      "name": "result_instance",
      "type": "event"
    },
    {
      "anonymous": false,
      "inputs": [
        {
          "indexed": false,
          "name": "a",
          "type": "bool"
        }
      ],
      "name": "result_bool",
      "type": "event"
    },
    {
      "anonymous": false,
      "inputs": [
        {
          "indexed": false,
          "name": "a",
          "type": "string"
        }
      ],
      "name": "result_string",
      "type": "event"
    },
    {
      "anonymous": false,
      "inputs": [
        {
          "indexed": false,
          "name": "a",
          "type": "bytes"
        },
        {
          "indexed": false,
          "name": "a_bitlen",
          "type": "uint256"
        },
        {
          "indexed": false,
          "name": "b",
          "type": "bytes"
        },
        {
          "indexed": false,
          "name": "b_bitlen",
          "type": "uint256"
        },
        {
          "indexed": false,
          "name": "c",
          "type": "bytes"
        },
        {
          "indexed": false,
          "name": "c_bitlen",
          "type": "uint256"
        }
      ],
      "name": "result_multi",
      "type": "event"
    }
  ],
  "bytecode": "0x6060604052341561000f57600080fd5b612a728061001e6000396000f300606060405260043610610099576000357c0100000000000000000000000000000000000000000000000000000000900463ffffffff16806307f696db1461009e578063294e1b8f146101f15780633950e3e814610291578063796cc0e01461041a5780639f6ccd7c14610651578063a1ba884d146107a4578063b496b60e146109db578063c6a392b714610c12578063f955f5a114610d3d575b600080fd5b34156100a957600080fd5b610164600480803590602001908201803590602001908080601f01602080910402602001604051908101604052809392919081815260200183838082843782019150505050505091908035151590602001909190803590602001909190803590602001908201803590602001908080601f016020809104026020016040519081016040528093929190818152602001838380828437820191505050505050919080351515906020019091908035906020019091905050610e90565b604051808060200184151515158152602001838152602001828103825285818151815260200191508051906020019080838360005b838110156101b4578082015181840152602081019050610199565b50505050905090810190601f1680156101e15780820380516001836020036101000a031916815260200191505b5094505050505060405180910390f35b34156101fc57600080fd5b610204610f2f565b604051808060200184151515158152602001838152602001828103825285818151815260200191508051906020019080838360005b83811015610254578082015181840152602081019050610239565b50505050905090810190601f1680156102815780820380516001836020036101000a031916815260200191505b5094505050505060405180910390f35b341561029c57600080fd5b61038d600480803590602001908201803590602001908080601f0160208091040260200160405190810160405280939291908181526020018383808284378201915050505050509190803590602001909190803590602001908201803590602001908080601f0160208091040260200160405190810160405280939291908181526020018383808284378201915050505050509190803590602001909190803590602001908201803590602001908080601f016020809104026020016040519081016040528093929190818152602001838380828437820191505050505050919080359060200190919050506110cb565b604051808060200184151515158152602001838152602001828103825285818151815260200191508051906020019080838360005b838110156103dd5780820151818401526020810190506103c2565b50505050905090810190601f16801561040a5780820380516001836020036101000a031916815260200191505b5094505050505060405180910390f35b341561042557600080fd5b6105c4600480803590602001908201803590602001908080601f0160208091040260200160405190810160405280939291908181526020018383808284378201915050505050509190803590602001908201803590602001908080601f0160208091040260200160405190810160405280939291908181526020018383808284378201915050505050509190803590602001908201803590602001908080601f0160208091040260200160405190810160405280939291908181526020018383808284378201915050505050509190803590602001908201803590602001908080601f0160208091040260200160405190810160405280939291908181526020018383808284378201915050505050509190803590602001908201803590602001908080601f0160208091040260200160405190810160405280939291908181526020018383808284378201915050505050509190803590602001908201803590602001908080601f016020809104026020016040519081016040528093929190818152602001838380828437820191505050505050919050506111a1565b604051808060200184151515158152602001838152602001828103825285818151815260200191508051906020019080838360005b838110156106145780820151818401526020810190506105f9565b50505050905090810190601f1680156106415780820380516001836020036101000a031916815260200191505b5094505050505060405180910390f35b341561065c57600080fd5b610717600480803590602001908201803590602001908080601f01602080910402602001604051908101604052809392919081815260200183838082843782019150505050505091908035151590602001909190803590602001909190803590602001908201803590602001908080601f0160208091040260200160405190810160405280939291908181526020018383808284378201915050505050509190803515159060200190919080359060200190919050506112d6565b604051808060200184151515158152602001838152602001828103825285818151815260200191508051906020019080838360005b8381101561076757808201518184015260208101905061074c565b50505050905090810190601f1680156107945780820380516001836020036101000a031916815260200191505b5094505050505060405180910390f35b34156107af57600080fd5b61094e600480803590602001908201803590602001908080601f0160208091040260200160405190810160405280939291908181526020018383808284378201915050505050509190803590602001908201803590602001908080601f0160208091040260200160405190810160405280939291908181526020018383808284378201915050505050509190803590602001908201803590602001908080601f0160208091040260200160405190810160405280939291908181526020018383808284378201915050505050509190803590602001908201803590602001908080601f0160208091040260200160405190810160405280939291908181526020018383808284378201915050505050509190803590602001908201803590602001908080601f0160208091040260200160405190810160405280939291908181526020018383808284378201915050505050509190803590602001908201803590602001908080601f01602080910402602001604051908101604052809392919081815260200183838082843782019150505050505091905050611375565b604051808060200184151515158152602001838152602001828103825285818151815260200191508051906020019080838360005b8381101561099e578082015181840152602081019050610983565b50505050905090810190601f1680156109cb5780820380516001836020036101000a031916815260200191505b5094505050505060405180910390f35b34156109e657600080fd5b610b85600480803590602001908201803590602001908080601f0160208091040260200160405190810160405280939291908181526020018383808284378201915050505050509190803590602001908201803590602001908080601f0160208091040260200160405190810160405280939291908181526020018383808284378201915050505050509190803590602001908201803590602001908080601f0160208091040260200160405190810160405280939291908181526020018383808284378201915050505050509190803590602001908201803590602001908080601f0160208091040260200160405190810160405280939291908181526020018383808284378201915050505050509190803590602001908201803590602001908080601f0160208091040260200160405190810160405280939291908181526020018383808284378201915050505050509190803590602001908201803590602001908080601f016020809104026020016040519081016040528093929190818152602001838380828437820191505050505050919050506114aa565b604051808060200184151515158152602001838152602001828103825285818151815260200191508051906020019080838360005b83811015610bd5578082015181840152602081019050610bba565b50505050905090810190601f168015610c025780820380516001836020036101000a031916815260200191505b5094505050505060405180910390f35b3415610c1d57600080fd5b610cc2600480803590602001908201803590602001908080601f0160208091040260200160405190810160405280939291908181526020018383808284378201915050505050509190803590602001909190803590602001908201803590602001908080601f016020809104026020016040519081016040528093929190818152602001838380828437820191505050505050919080359060200190919050506115df565b6040518080602001828103825283818151815260200191508051906020019080838360005b83811015610d02578082015181840152602081019050610ce7565b50505050905090810190601f168015610d2f5780820380516001836020036101000a031916815260200191505b509250505060405180910390f35b3415610d4857600080fd5b610e03600480803590602001908201803590602001908080601f01602080910402602001604051908101604052809392919081815260200183838082843782019150505050505091908035151590602001909190803590602001909190803590602001908201803590602001908080601f0160208091040260200160405190810160405280939291908181526020018383808284378201915050505050509190803515159060200190919080359060200190919050506115ef565b604051808060200184151515158152602001838152602001828103825285818151815260200191508051906020019080838360005b83811015610e53578082015181840152602081019050610e38565b50505050905090810190601f168015610e805780820380516001836020036101000a031916815260200191505b5094505050505060405180910390f35b610e98612940565b600080610ea3612954565b610eab612954565b610eb3612954565b6060604051908101604052808d81526020018c151581526020018b81525092506060604051908101604052808a81526020018915158152602001888152509150610f06828461168e90919063ffffffff16565b905080600001518160200151826040015182925095509550955050505096509650969350505050565b610f37612940565b600080610f42612940565b610f4a612940565b6000806000806080604051908101604052806060815260200169bccc69e47d98498430b781526020017f25f7ff5af5be936fb1ccde3fdcda3b0882a9082eab761e75b34da18d8923d70b81526020017f481d89e2e936eecec248b3d456b580900a18bcd39b3948bc956139367b89dde7815250955060c06040519081016040528060a081526020016129a760a091399450600093506000925061025091506104bf9050610ffb868584888786610e90565b8094508196508298505050507ffdc175bb3642ea39e612896ffc93f61fa5f4335e5f69231bdd799321d2a409b9868584604051808060200184151515158152602001838152602001828103825285818151815260200191508051906020019080838360005b8381101561107b578082015181840152602081019050611060565b50505050905090810190601f1680156110a85780820380516001836020036101000a031916815260200191505b5094505050505060405180910390a1858483985098509850505050505050909192565b6110d3612940565b6000806110de612954565b6110e6612954565b6110ee612954565b6110f6612954565b8c84600001819052508b84604001818152505060008460200190151590811515815250508a83600001819052508983604001818152505060008360200190151590811515815250508882600001819052508782604001818152505060008260200190151590811515815250506111778383866118f49092919063ffffffff16565b90508060000151816020015182604001518292509650965096505050505096509650969350505050565b6111a9612940565b6000806111b4612954565b6111bc612954565b6111c4612954565b6000806111cf612954565b60208e0151925060408e015191508e866000018190525081866040018181525050600183146111ff576000611202565b60015b86602001901515908115158152505060208c0151925060408c015191508c85600001819052508185604001818152505060018314611241576000611244565b60015b85602001901515908115158152505060208a0151925060408a015191508a84600001819052508184604001818152505060018314611283576000611286565b60015b8460200190151590811515815250506112aa8585886119969092919063ffffffff16565b905080600001518160200151826040015182925098509850985050505050505096509650969350505050565b6112de612940565b6000806112e9612954565b6112f1612954565b6112f9612954565b6060604051908101604052808d81526020018c151581526020018b81525092506060604051908101604052808a8152602001891515815260200188815250915061134c82846119ba90919063ffffffff16565b905080600001518160200151826040015182925095509550955050505096509650969350505050565b61137d612940565b600080611388612954565b611390612954565b611398612954565b6000806113a3612954565b60208e0151925060408e015191508e866000018190525081866040018181525050600183146113d35760006113d6565b60015b86602001901515908115158152505060208c0151925060408c015191508c85600001819052508185604001818152505060018314611415576000611418565b60015b85602001901515908115158152505060208a0151925060408a015191508a8460000181905250818460400181815250506001831461145757600061145a565b60015b84602001901515908115158152505061147e858588611a1c9092919063ffffffff16565b905080600001518160200151826040015182925098509850985050505050505096509650969350505050565b6114b2612940565b6000806114bd612954565b6114c5612954565b6114cd612954565b6000806114d8612954565b60208e0151925060408e015191508e8660000181905250818660400181815250506001831461150857600061150b565b60015b86602001901515908115158152505060208c0151925060408c015191508c8560000181905250818560400181815250506001831461154a57600061154d565b60015b85602001901515908115158152505060208a0151925060408a015191508a8460000181905250818460400181815250506001831461158c57600061158f565b60015b8460200190151590811515815250506115b3858588611c249092919063ffffffff16565b905080600001518160200151826040015182925098509850985050505050505096509650969350505050565b6115e761297e565b949350505050565b6115f7612940565b600080611602612954565b61160a612954565b611612612954565b6060604051908101604052808d81526020018c151581526020018b81525092506060604051908101604052808a815260200189151581526020018881525091506116658284611cf590919063ffffffff16565b905080600001518160200151826040015182925095509550955050505096509650969350505050565b611696612954565b61169e612954565b6116a6612940565b6000806060604051908101604052806040805190810160405280602081526020016000815250815260200160001515815260200160008152509350600087604001511480156116f9575060008660400151145b15611706578394506118ea565b60008760400151141561171b578594506118ea565b600086604001511415611730578694506118ea565b61173c87876000611f51565b905086602001518061174f575085602001515b156118765786602001518015611766575085602001515b156117cf576000811215156117995761178c87600001518760000151896040015161210a565b80935081945050506117b9565b6117b086600001518860000151886040015161210a565b80935081945050505b6001856020019015159081151581525050611871565b600181141561180b576117ea87600001518760000151612265565b80935081945050508660200151856020019015159081151581525050611870565b7fffffffffffffffffffffffffffffffffffffffffffffffffffffffffffffffff8114156118675761184586600001518860000151612265565b809350819450505086602001511585602001901515908115158152505061186f565b8394506118ea565b5b5b6118d6565b6000811215156118a45761189787600001518760000151896040015161210a565b80935081945050506118c4565b6118bb86600001518860000151886040015161210a565b80935081945050505b60008560200190151590811515815250505b828560000181905250818560400181815250505b5050505092915050565b6118fc612954565b611904612954565b600015158560200151151514801561192457506000151584602001511515145b151561192f57600080fd5b6060604051908101604052806040805190810160405280602081526020016001815250815260200160001515815260200160018152509050600061197f611977878688611996565b836001611f51565b14151561198b57600080fd5b829150509392505050565b61199e612954565b6119b16119ab85856119ba565b83612385565b90509392505050565b6119c2612954565b6119ca612954565b6119d6848460006123e1565b915060006119e685856001611f51565b141515611a08576119f9848460016123e1565b9050611a058282611cf5565b91505b611a138260026124fe565b91505092915050565b611a24612954565b611a2c612954565b611a34612954565b611a3c612954565b611a44612954565b60011515886020015115151480611a6357506001151587602001511515145b15611ac6576001151588602001511515148015611a8857506001151587602001511515145b15611aa9576000151586602001511515141515611aa457600080fd5b611ac1565b6001151586602001511515141515611ac057600080fd5b5b611ade565b6000151586602001511515141515611add57600080fd5b5b60606040519081016040528060408051908101604052806020815260200160008152508152602001600015158152602001600081525093506000611b2488866001611f51565b14151515611b3157600080fd5b6000611b3f87866001611f51565b1415611b85577fffffffffffffffffffffffffffffffffffffffffffffffffffffffffffffffff611b7289896001611f51565b1415611b8057859450611c19565b600080fd5b611b8f87876119ba565b92506000611b9f848a6001611f51565b1415611bad57859450611c19565b6060604051908101604052806040805190810160405280602081526020016001815250815260200160001515815260200160018152509150611bf0888385611c24565b90506000611c09611c01858461168e565b8a6001611f51565b141515611c1557600080fd5b8594505b505050509392505050565b611c2c612954565b611c34612940565b600080151585602001511515141515611c4c57600080fd5b611c638660000151866000015186600001516125e7565b915060208201519050610100600160208451811515611c7e57fe5b040302611c8a826126b6565b01905081836000018190525060001515866020015115151480611cc2575085602001518015611cc157506000611cbf86612907565b145b5b611ccd576001611cd0565b60005b8360200190151590811515815250508083604001818152505082925050509392505050565b611cfd612954565b611d05612954565b611d0d612940565b6000806060604051908101604052806040805190810160405280602081526020016000815250815260200160001515815260200160008152509350611d5487876000611f51565b9150866020015180611d67575085602001515b15611e985786602001518015611d7e575085602001515b15611e22576001821415611dbc57611d9e87600001518760000151612265565b80925081945050506001856020019015159081151581525050611e1d565b7fffffffffffffffffffffffffffffffffffffffffffffffffffffffffffffffff821415611e1457611df686600001518860000151612265565b80925081945050506000856020019015159081151581525050611e1c565b839450611f47565b5b611e93565b600082121515611e5057611e4387600001518760000151896040015161210a565b8092508194505050611e70565b611e6786600001518860000151886040015161210a565b80925081945050505b8660200151611e80576000611e83565b60015b8560200190151590811515815250505b611f33565b6001821415611ed157611eb387600001518760000151612265565b80925081945050506000856020019015159081151581525050611f32565b7fffffffffffffffffffffffffffffffffffffffffffffffffffffffffffffffff821415611f2957611f0b86600001518860000151612265565b80925081945050506001856020019015159081151581525050611f31565b839450611f47565b5b5b828560000181905250808560400181815250505b5050505092915050565b600080600080600080600080600196508815612023578a602001518015611f79575089602001515b15611fa6577fffffffffffffffffffffffffffffffffffffffffffffffffffffffffffffffff9650612022565b600015158b602001511515148015611fc65750600115158a602001511515145b15611fd457600197506120fc565b600115158b602001511515148015611ff45750600015158a602001511515145b15612021577fffffffffffffffffffffffffffffffffffffffffffffffffffffffffffffffff97506120fc565b5b5b89604001518b60400151111561203e578660010297506120fc565b8a604001518a60400151111561207857867fffffffffffffffffffffffffffffffffffffffffffffffffffffffffffffffff0297506120fc565b8a6000015151915060208b5101955060208a51019450600090505b818110156120f757808601519350808501519250828411156120ba578660010297506120fc565b838311156120ec57867fffffffffffffffffffffffffffffffffffffffffffffffffffffffffffffffff0297506120fc565b602081019050612093565b600097505b505050505050509392505050565b612112612940565b600061211c612940565b6000596001600003600089518a0189518a018b5160208601018c515b600080821414156121e55783518d518f510382116001811461217d5786820184526001871482891416600181146121725760009750612177565b600197505b506121cc565b84518781840101855287810389038311600181146121be576000821160008a11178a851416600181146121b357600099506121b8565b600199505b506121c3565b600198505b50602086039550505b5060208303925060208503945050602081039050612138565b5060008414600181146121fb5760018252612202565b6020870196505b50859750836020028d51018852602088510188016040525050505050506020820151905060016101008681151561223557fe5b06829060020a900414806122495750600181145b15612255578460010194505b8185935093505050935093915050565b61226d612940565b6000612277612940565b6000806000915059600160000388518851808203828c01828c0184870160208101865b6000808214141561232b578451868211600181146122dc578d8203855260018e146000831416600181146122d15760009e506122d6565b60019e505b50612312565b85518e81840303865260018f148c8214168f8201841017600181146123045760009f50612309565b60019f505b50602087039650505b506020840393506020860395505060208103905061229a565b506020820191505b60016000835114141561235757602089019850602087039650602082019150612333565b889b50868c52806040525050505050505050506123738361291c565b90508281945094505050509250929050565b61238d612954565b612395612954565b60606040519081016040528060408051908101604052806020815260200160018152508152602001600015158152602001600181525090506123d8848285611c24565b91505092915050565b6123e9612954565b6123f1612954565b6000806123fc612940565b6000612406612954565b60606040519081016040528060408051908101604052806020815260200160028152508152602001600015158152602001600281525095506000945060008814612459576124548a8a611cf5565b612464565b6124638a8a61168e565b5b9650866040015191506002820294506101008581151561248057fe5b0660019060020a0293506040805190810160405280602081526020016000815250925060206001610100870401028352836020840152602083510183016040528281600001819052506000816020019015159081151581525050848160400181815250506124ef878783611c24565b96505050505050509392505050565b612506612954565b61250e612940565b6000806000806000806000896101000395508a6000015151915060206000039250818b510193506020820390505b8281101561258f578351965060008114600181146125605760208503519550612565565b600095505b5089879060020a9004965085859060020a029450848717845260208403935060208103905061253c565b6020840193505b6001600085511414156125b457602084019350602082039150612596565b602084039750818852878b60000181905250898b60400151038b60400181815250508a9850505050505050505092915050565b6125ef612940565b83518351835160405183815282602082015281604082015283606082018560208b01600060046101c2f184606001848184018660208c01600060046101c2f191508481019050838184018560208b01600060046101c2f19150816000811461265657612658565bfe5b50838101905083836060018285600060056105465a03f1915083836060015b60016000825114141561269557602081019050602082039150612677565b60208103985081895285856060010160405250505050505050509392505050565b60008082905060018303925060028304831792506004830483179250601083048317925061010083048317925062010000830483179250640100000000830483179250680100000000000000008304831792507001000000000000000000000000000000008304831792506001830192506040517ff8f9cbfae6cc78fbefe7cdc3a1793dfcf4f0e8bbd8cec470b6a28a7a5a3e1efd81527ff5ecf1b3e9debc68e1d9cfabc5997135bfb7a7a3938b7b606b5b4b3f2f1f0ffe60208201527ff6e4ed9ff2d6b458eadcdf97bd91692de2d4da8fd2d0ac50c6ae9a827252361660408201527fc8c0b887b0a8a4489c948c7f847c6125746c645c544c444038302820181008ff60608201527ff7cae577eec2a03cf3bad76fb589591debb2dd67e0aa9834bea6925f6a4a2e0e60808201527fe39ed557db96902cd38ed14fad815115c786af479b7e8324736353433727170760a08201527fc976c13bb96e881cb166a933a55e490d9d56952b8d4e801485467d236242260660c08201527f753a6d1b65325d0c552a4d1345224105391a310b29122104190a11030902010060e082015261010081016040527e818283848586878898a8b8c8d8e8f929395969799a9b9d9e9faaeb6bedeeff7f01000000000000000000000000000000000000000000000000000000000000008082870204818160ff038501510495507f8000000000000000000000000000000000000000000000000000000000000000851161010002860195505050505060006001820382161480156128f5575060008314155b15612901578160010191505b50919050565b60008151518251016002815106915050919050565b600080602083015190506008602084510302612937826126b6565b01915050919050565b602060405190810160405280600081525090565b606060405190810160405280612968612992565b8152602001600015158152602001600081525090565b602060405190810160405280600081525090565b6020604051908101604052806000815250905600000000000000000056a961a7c9c8b9c835ce0d5734838ad4117f92ec12646db52d5e4b5eaebd78924180a3b9378729b9a37b6705c277f1092d63605a584632f8fa3df6e85521a2d811978ddc24234a106334c55e95017705628bc89f6674a4c38e2955cc2c11092b86a12bdb250be70f90a652fb0ebe35efc3da0ad0f7142c861a4c304f2c1449caa730808b6ca7aa99d12034f6acbcbaa4a219750fdc6807e4a165627a7a723058201c4251b767b7a8c05185da1e4b2bb8d55123d04fe65b0173712ad7eb8725427f0029",
  "source": "pragma solidity ^0.4.18;\n\nimport \"./BigNumber.sol\";\n\n/* \n * mock contract to access BigNumber library for testing.\n * Library is mostly internal functions and tf. requires a contract to instantiate it to be used.\n * js file in ../test directory instantiates and uses this contract.\n */\n\ncontract MockBigNumber {\n  using BigNumber for *; \n  \n  //use these for printing in remix when using local node.\n  event result_instance(bytes, bool, uint); \n\n  event result_bool(bool a);     \n\n  event result_string(string a);\n\n  event result_multi(bytes a, uint a_bitlen, bytes b, uint b_bitlen, bytes c, uint c_bitlen);\n\n\n  function js_call() public returns(bytes,bool,uint){\n    //** add hard-coded values as neccessary here ***//\n\n    bytes memory a_val = hex\"00000000000000000000000000000000000000000000bccc69e47d98498430b725f7ff5af5be936fb1ccde3fdcda3b0882a9082eab761e75b34da18d8923d70b481d89e2e936eecec248b3d456b580900a18bcd39b3948bc956139367b89dde7\";\n    bytes memory b_val = hex\"000000000000000056a961a7c9c8b9c835ce0d5734838ad4117f92ec12646db52d5e4b5eaebd78924180a3b9378729b9a37b6705c277f1092d63605a584632f8fa3df6e85521a2d811978ddc24234a106334c55e95017705628bc89f6674a4c38e2955cc2c11092b86a12bdb250be70f90a652fb0ebe35efc3da0ad0f7142c861a4c304f2c1449caa730808b6ca7aa99d12034f6acbcbaa4a219750fdc6807e4\";\n    bool a_neg = false;\n    bool b_neg = false;\n    uint a_bitlen = 592;\n    uint b_bitlen = 1215;\n    (a_val,a_neg,a_bitlen) = mock_bn_add(a_val,a_neg, a_bitlen, b_val, b_neg, b_bitlen);\n    result_instance(a_val,a_neg,a_bitlen);\n    return(a_val,a_neg,a_bitlen);\n  }\n\n  //calls prepare_add, and by extension bn_add and bn_sub\n  function mock_bn_add(bytes a_val, bool a_neg, uint a_bitlen,  bytes b_val, bool b_neg, uint b_bitlen) public returns (bytes, bool, uint){\n    BigNumber.instance memory a = BigNumber.instance(a_val, a_neg, a_bitlen);\n    BigNumber.instance memory b = BigNumber.instance(b_val, b_neg, b_bitlen);\n    BigNumber.instance memory res = a.prepare_add(b);\n\n    return (res.val, res.neg, res.bitlen);\n  }\n\n  //calls prepare_sub, and by extension bn_add and bn_sub\n  function mock_bn_sub(bytes a_val, bool a_neg, uint a_bitlen,  bytes b_val, bool b_neg, uint b_bitlen) public returns (bytes, bool, uint){\n    BigNumber.instance memory a = BigNumber.instance(a_val, a_neg, a_bitlen);\n    BigNumber.instance memory b = BigNumber.instance(b_val, b_neg, b_bitlen);\n    BigNumber.instance memory res = a.prepare_sub(b);\n\n    return (res.val, res.neg, res.bitlen);\n  }\n  \n  //calls bn_mul, and by extension add, sub and right_shift.\n  function mock_bn_mul(bytes a_val, bool a_neg, uint a_bitlen,  bytes b_val, bool b_neg, uint b_bitlen) public returns(bytes, bool, uint){\n    BigNumber.instance memory a = BigNumber.instance(a_val, a_neg, a_bitlen);\n    BigNumber.instance memory b = BigNumber.instance(b_val, b_neg, b_bitlen);\n    BigNumber.instance memory res = a.bn_mul(b);\n\n    return (res.val, res.neg, res.bitlen);\n  }\n\n  //stack too deep error when passing in 9 distinct variables as arguments where 3 bignums are expected.\n  //instead we encode each bitlen/neg value in a bytes array and decode.\n function mock_is_prime(bytes prime_val, uint prime_bitlen, bytes randomness_vals, uint count_randomness) public returns(string){ \n    //TODO\n  }\n\n  //stack too deep error when passing in 9 distinct variables as arguments where 3 bignums are expected.\n  //instead we encode each bitlen/neg value in a bytes array and decode.\n  function mock_modexp(bytes a_val, bytes a_extra, bytes b_val, bytes b_extra, bytes mod_val, bytes mod_extra) public returns(bytes, bool, uint){    \n      BigNumber.instance memory a;\n      BigNumber.instance memory b;\n      BigNumber.instance memory mod;\n    \n      uint neg;\n      uint bitlen;\n      \n      assembly {\n         neg := mload(add(a_extra,0x20))\n         bitlen := mload(add(a_extra,0x40))\n      }\n      \n      a.val = a_val;\n      a.bitlen = bitlen;\n      a.neg = (neg==1) ? true : false;\n      \n      assembly {\n         neg := mload(add(b_extra,0x20))\n         bitlen := mload(add(b_extra,0x40))\n      }\n      \n      b.val = b_val;\n      b.bitlen = bitlen;\n      b.neg = (neg==1) ? true : false;\n      \n      assembly {\n         neg := mload(add(mod_extra,0x20))\n         bitlen := mload(add(mod_extra,0x40))\n      }\n      \n      mod.val = mod_val;\n      mod.bitlen = bitlen;\n      mod.neg = (neg==1) ? true : false;\n    \n      BigNumber.instance memory res = a.prepare_modexp(b,mod);\n      \n      return (res.val, res.neg, res.bitlen);\n  }\n\n  //stack too deep error when passing in 9 distinct variables as arguments where 3 bignums are expected.\n  //instead we encode each bitlen/neg value in a bytes array and decode.\n  function mock_bn_div(bytes a_val, bytes a_extra, bytes b_val, bytes b_extra, bytes res_val, bytes res_extra) public returns(bytes, bool, uint){    \n      BigNumber.instance memory a;\n      BigNumber.instance memory b;\n      BigNumber.instance memory expected;\n    \n      uint neg;\n      uint bitlen;\n      \n      assembly {\n         neg := mload(add(a_extra,0x20))\n         bitlen := mload(add(a_extra,0x40))\n      }\n      \n      a.val = a_val;\n      a.bitlen = bitlen;\n      a.neg = (neg==1) ? true : false;\n      \n      assembly {\n         neg := mload(add(b_extra,0x20))\n         bitlen := mload(add(b_extra,0x40))\n      }\n      \n      b.val = b_val;\n      b.bitlen = bitlen;\n      b.neg = (neg==1) ? true : false;\n      \n      assembly {\n         neg := mload(add(res_extra,0x20))\n         bitlen := mload(add(res_extra,0x40))\n      }\n      \n      expected.val = res_val;\n      expected.bitlen = bitlen;\n      expected.neg = (neg==1) ? true : false;\n    \n      BigNumber.instance memory res = a.bn_div(b,expected);\n      \n      return (res.val, res.neg, res.bitlen);\n  }\n\n  //stack too deep error when passing in 9 distinct variables as arguments where 3 bignums are expected.\n  //instead we encode each bitlen/neg value in a bytes array and decode.\n  function mock_modinverse(bytes a_val, uint a_bitlen, bytes m_val, uint m_bitlen, bytes n_val, uint n_bitlen) public returns(bytes, bool, uint){    \n      BigNumber.instance memory a;\n      BigNumber.instance memory m;\n      BigNumber.instance memory n;\n\n      a.val = a_val;\n      a.bitlen = a_bitlen;\n      a.neg = false;\n\n      m.val = m_val;\n      m.bitlen = m_bitlen;\n      m.neg = false;\n\n      n.val = n_val;\n      n.bitlen = n_bitlen;\n      n.neg = false;\n    \n      BigNumber.instance memory res = a.mod_inverse(m,n);\n      \n      return (res.val, res.neg, res.bitlen);\n  }\n\n  //stack too deep error when passing in 9 distinct variables as arguments where 3 bignums are expected.\n  //instead we encode each bitlen/neg value in a bytes array and decode.\n  function mock_modmul(bytes a_val, bytes a_extra, bytes b_val, bytes b_extra, bytes mod_val, bytes mod_extra) public returns(bytes, bool, uint){    \n      BigNumber.instance memory a;\n      BigNumber.instance memory b;\n      BigNumber.instance memory mod;\n    \n      uint neg;\n      uint bitlen;\n      \n      assembly {\n         neg := mload(add(a_extra,0x20))\n         bitlen := mload(add(a_extra,0x40))\n      }\n      \n      a.val = a_val;\n      a.bitlen = bitlen;\n      a.neg = (neg==1) ? true : false;\n      \n      assembly {\n         neg := mload(add(b_extra,0x20))\n         bitlen := mload(add(b_extra,0x40))\n      }\n      \n      b.val = b_val;\n      b.bitlen = bitlen;\n      b.neg = (neg==1) ? true : false;\n      \n      assembly {\n         neg := mload(add(mod_extra,0x20))\n         bitlen := mload(add(mod_extra,0x40))\n      }\n      \n      mod.val = mod_val;\n      mod.bitlen = bitlen;\n      mod.neg = (neg==1) ? true : false;\n    \n      BigNumber.instance memory res = a.modmul(b,mod);\n      \n      return (res.val, res.neg, res.bitlen);\n  }\n}",
  "sourcePath": "/Users/tadhgriordan/Documents/solidity-BigNumber/contracts/MockBigNumber.sol",
  "compiler": {
    "name": "solc",
    "version": "0.4.19+commit.c4cbbb05.Emscripten.clang"
  },
  "schemaVersion": "1.0.1",
  "updatedAt": "2018-02-09T11:13:05.705Z"
}